{
  "contractName": "Voting",
  "abi": [
    {
      "constant": true,
      "inputs": [
        {
          "name": "",
          "type": "bytes32"
        }
      ],
      "name": "votesReceived",
      "outputs": [
        {
          "name": "",
          "type": "uint8"
        }
      ],
      "payable": false,
      "stateMutability": "view",
      "type": "function"
    },
    {
      "constant": true,
      "inputs": [
        {
          "name": "",
          "type": "address"
        }
      ],
      "name": "whoVotesHim",
      "outputs": [
        {
          "name": "",
          "type": "bytes32"
        }
      ],
      "payable": false,
      "stateMutability": "view",
      "type": "function"
    },
    {
      "constant": true,
      "inputs": [
        {
          "name": "",
          "type": "uint256"
        }
      ],
      "name": "candidateList",
      "outputs": [
        {
          "name": "",
          "type": "bytes32"
        }
      ],
      "payable": false,
      "stateMutability": "view",
      "type": "function"
    },
    {
      "constant": true,
      "inputs": [],
      "name": "totalValue",
      "outputs": [
        {
          "name": "",
          "type": "uint256"
        }
      ],
      "payable": false,
      "stateMutability": "view",
      "type": "function"
    },
    {
      "constant": true,
      "inputs": [
        {
          "name": "",
          "type": "uint256"
        }
      ],
      "name": "voters",
      "outputs": [
        {
          "name": "",
          "type": "address"
        }
      ],
      "payable": false,
      "stateMutability": "view",
      "type": "function"
    },
    {
      "constant": true,
      "inputs": [],
      "name": "fee",
      "outputs": [
        {
          "name": "",
          "type": "uint256"
        }
      ],
      "payable": false,
      "stateMutability": "view",
      "type": "function"
    },
    {
      "inputs": [
        {
          "name": "candidateNames",
          "type": "bytes32[]"
        }
      ],
      "payable": false,
      "stateMutability": "nonpayable",
      "type": "constructor"
    },
    {
      "anonymous": false,
      "inputs": [
        {
          "indexed": false,
          "name": "i",
          "type": "address"
        }
      ],
      "name": "IAmHere",
      "type": "event"
    },
    {
      "constant": true,
      "inputs": [
        {
          "name": "candidate",
          "type": "bytes32"
        }
      ],
      "name": "totalVotesFor",
      "outputs": [
        {
          "name": "",
          "type": "uint8"
        }
      ],
      "payable": false,
      "stateMutability": "view",
      "type": "function"
    },
    {
      "constant": false,
      "inputs": [
        {
          "name": "candidate",
          "type": "bytes32"
        }
      ],
      "name": "voteForCandidate",
      "outputs": [],
      "payable": true,
      "stateMutability": "payable",
      "type": "function"
    },
    {
      "constant": true,
      "inputs": [
        {
          "name": "candidate",
          "type": "bytes32"
        }
      ],
      "name": "validCandidate",
      "outputs": [
        {
          "name": "",
          "type": "bool"
        }
      ],
      "payable": false,
      "stateMutability": "view",
      "type": "function"
    },
    {
      "constant": true,
      "inputs": [],
      "name": "whoAmI",
      "outputs": [
        {
          "name": "",
          "type": "address"
        }
      ],
      "payable": false,
      "stateMutability": "view",
      "type": "function"
    },
    {
      "constant": false,
      "inputs": [
        {
          "name": "_candidate",
          "type": "bytes32"
        }
      ],
      "name": "withdraw",
      "outputs": [],
      "payable": false,
      "stateMutability": "nonpayable",
      "type": "function"
    }
  ],
  "bytecode": "0x608060405260036040519080825280602002602001820160405280156100345781602001602082028038833980820191505090505b506002908051906020019061004a9291906100a8565b50670de0b6b3a7640000600455600060055534801561006857600080fd5b506040516109a63803806109a68339810180604052810190808051820192919050505080600290805190602001906100a19291906100a8565b5050610120565b8280548282559060005260206000209081019282156100ea579160200282015b828111156100e95782518290600019169055916020019190600101906100c8565b5b5090506100f791906100fb565b5090565b61011d91905b80821115610119576000816000905550600101610101565b5090565b90565b6108778061012f6000396000f3006080604052600436106100af576000357c0100000000000000000000000000000000000000000000000000000000900463ffffffff1680632f265cf7146100b4578063392e6678146100ff5780637021939f146101485780638e19899e146101935780639aad0279146101c4578063b13c744b14610223578063cc9ab2671461026c578063d4c3eea014610290578063da58c7d9146102bb578063da91254c14610328578063ddca3f431461037f575b600080fd5b3480156100c057600080fd5b506100e360048036038101908080356000191690602001909291905050506103aa565b604051808260ff1660ff16815260200191505060405180910390f35b34801561010b57600080fd5b5061012e60048036038101908080356000191690602001909291905050506103f8565b604051808215151515815260200191505060405180910390f35b34801561015457600080fd5b506101776004803603810190808035600019169060200190929190505050610457565b604051808260ff1660ff16815260200191505060405180910390f35b34801561019f57600080fd5b506101c26004803603810190808035600019169060200190929190505050610477565b005b3480156101d057600080fd5b50610205600480360381019080803573ffffffffffffffffffffffffffffffffffffffff169060200190929190505050610626565b60405180826000191660001916815260200191505060405180910390f35b34801561022f57600080fd5b5061024e6004803603810190808035906020019092919050505061063e565b60405180826000191660001916815260200191505060405180910390f35b61028e6004803603810190808035600019169060200190929190505050610661565b005b34801561029c57600080fd5b506102a56107f9565b6040518082815260200191505060405180910390f35b3480156102c757600080fd5b506102e6600480360381019080803590602001909291905050506107ff565b604051808273ffffffffffffffffffffffffffffffffffffffff1673ffffffffffffffffffffffffffffffffffffffff16815260200191505060405180910390f35b34801561033457600080fd5b5061033d61083d565b604051808273ffffffffffffffffffffffffffffffffffffffff1673ffffffffffffffffffffffffffffffffffffffff16815260200191505060405180910390f35b34801561038b57600080fd5b50610394610845565b6040518082815260200191505060405180910390f35b600081600115156103ba826103f8565b15151415156103c857600080fd5b600080846000191660001916815260200190815260200160002060009054906101000a900460ff16915050919050565b600080600090505b60028054905081101561044c57826000191660028281548110151561042157fe5b906000526020600020015460001916141561043f5760019150610451565b8080600101915050610400565b600091505b50919050565b60006020528060005260406000206000915054906101000a900460ff1681565b600080600080600080866000191660001916815260200190815260200160002060009054906101000a900460ff1693508360ff166005548115156104b757fe5b049250600090505b60038054905081101561061f57600160006003838154811015156104df57fe5b9060005260206000200160009054906101000a900473ffffffffffffffffffffffffffffffffffffffff1673ffffffffffffffffffffffffffffffffffffffff1673ffffffffffffffffffffffffffffffffffffffff16815260200190815260200160002054915084604051808260001916600019168152602001915050604051809103902060001916826040518082600019166000191681526020019150506040518091039020600019161415610612576003818154811015156105a057fe5b9060005260206000200160009054906101000a900473ffffffffffffffffffffffffffffffffffffffff1673ffffffffffffffffffffffffffffffffffffffff166108fc849081150290604051600060405180830381858888f19350505050158015610610573d6000803e3d6000fd5b505b80806001019150506104bf565b5050505050565b60016020528060005260406000206000915090505481565b60028181548110151561064d57fe5b906000526020600020016000915090505481565b806001151561066f826103f8565b151514151561067d57600080fd5b600454341015151561068e57600080fd5b60033390806001815401808255809150509060018203906000526020600020016000909192909190916101000a81548173ffffffffffffffffffffffffffffffffffffffff021916908373ffffffffffffffffffffffffffffffffffffffff1602179055505081600160003373ffffffffffffffffffffffffffffffffffffffff1673ffffffffffffffffffffffffffffffffffffffff1681526020019081526020016000208160001916905550346005600082825401925050819055507f9c1128734f80931e3251873b23f448d1e3680279fb54c4bbaa4234cad3818ba133604051808273ffffffffffffffffffffffffffffffffffffffff1673ffffffffffffffffffffffffffffffffffffffff16815260200191505060405180910390a16001600080846000191660001916815260200190815260200160002060008282829054906101000a900460ff160192506101000a81548160ff021916908360ff1602179055505050565b60055481565b60038181548110151561080e57fe5b906000526020600020016000915054906101000a900473ffffffffffffffffffffffffffffffffffffffff1681565b600033905090565b600454815600a165627a7a72305820e07e61cf68b59f3d0eaf99bed150420894f2bd495022876419f58ac2ec87a47c0029",
  "source": "pragma solidity ^0.4.23;\n\ncontract Voting {\n  \n  mapping (bytes32 => uint8) public votesReceived;\n\n  mapping (address => bytes32) public whoVotesHim;\n  \n  bytes32[] public candidateList = new bytes32[](3);\n\n  address[] public voters;\n\n  uint public fee = 1 ether;\n  uint public totalValue = 0;\n \n\n  event IAmHere(address i);\n\n  constructor (bytes32[] candidateNames) public{\n    candidateList = candidateNames;\n  }\n\n  function totalVotesFor(bytes32 candidate) myValid(candidate) public view  returns (uint8) {\n    return votesReceived[candidate];\n  }\n\n  function voteForCandidate (bytes32 candidate) public payable myValid(candidate){\n    require(msg.value >= fee);\n\n    voters.push(msg.sender);\n    whoVotesHim[msg.sender] = candidate;\n    totalValue += msg.value;\n\n\n    emit IAmHere(msg.sender);\n    votesReceived[candidate] += 1;\n  }\n\n  function validCandidate(bytes32 candidate) public view returns (bool) {\n    for(uint i = 0; i < candidateList.length; i++) {\n      if (candidateList[i] == candidate) {\n        return true;\n      }\n    }\n    return false;\n  }\n\n  modifier myValid(bytes32 candidate){\n    require( validCandidate(candidate) == true );\n    _;\n  }\n\n  function whoAmI() public view returns(address){\n    return msg.sender;\n  }\n\n  function withdraw(bytes32 _candidate) external{\n    uint8 winnerCount = votesReceived[_candidate];\n    uint moneyD = totalValue / winnerCount; \n    bytes32 a;\n    for(uint i=0; i<voters.length; i++){\n      a = whoVotesHim[voters[i]];\n      if( keccak256( a ) == keccak256( _candidate ) ){\n        voters[i].transfer(moneyD);\n      }\n    }\n  }\n\n\n\n}\n",
  "sourcePath": "/home/user/myvoting/contracts/Voting.sol",
  "compiler": {
    "name": "solc",
    "version": "0.4.23+commit.124ca40d.Emscripten.clang"
  },
  "schemaVersion": "2.0.0",
  "updatedAt": "2018-06-13T09:27:15.227Z"
}