{
  "contractName": "Voting",
  "abi": [
    {
      "constant": true,
      "inputs": [
        {
          "name": "",
          "type": "bytes32"
        }
      ],
      "name": "votesReceived",
      "outputs": [
        {
          "name": "",
          "type": "uint8"
        }
      ],
      "payable": false,
      "stateMutability": "view",
      "type": "function"
    },
    {
      "constant": true,
      "inputs": [
        {
          "name": "",
          "type": "address"
        }
      ],
      "name": "whoVotesHim",
      "outputs": [
        {
          "name": "",
          "type": "bytes32"
        }
      ],
      "payable": false,
      "stateMutability": "view",
      "type": "function"
    },
    {
      "constant": true,
      "inputs": [
        {
          "name": "",
          "type": "uint256"
        }
      ],
      "name": "candidateList",
      "outputs": [
        {
          "name": "",
          "type": "bytes32"
        }
      ],
      "payable": false,
      "stateMutability": "view",
      "type": "function"
    },
    {
      "constant": true,
      "inputs": [],
      "name": "totalValue",
      "outputs": [
        {
          "name": "",
          "type": "uint256"
        }
      ],
      "payable": false,
      "stateMutability": "view",
      "type": "function"
    },
    {
      "constant": true,
      "inputs": [
        {
          "name": "",
          "type": "uint256"
        }
      ],
      "name": "voters",
      "outputs": [
        {
          "name": "",
          "type": "address"
        }
      ],
      "payable": false,
      "stateMutability": "view",
      "type": "function"
    },
    {
      "constant": true,
      "inputs": [],
      "name": "fee",
      "outputs": [
        {
          "name": "",
          "type": "uint256"
        }
      ],
      "payable": false,
      "stateMutability": "view",
      "type": "function"
    },
    {
      "inputs": [
        {
          "name": "candidateNames",
          "type": "bytes32[]"
        }
      ],
      "payable": false,
      "stateMutability": "nonpayable",
      "type": "constructor"
    },
    {
      "anonymous": false,
      "inputs": [
        {
          "indexed": false,
          "name": "i",
          "type": "address"
        }
      ],
      "name": "IAmHere",
      "type": "event"
    },
    {
      "constant": true,
      "inputs": [
        {
          "name": "candidate",
          "type": "bytes32"
        }
      ],
      "name": "totalVotesFor",
      "outputs": [
        {
          "name": "",
          "type": "uint8"
        }
      ],
      "payable": false,
      "stateMutability": "view",
      "type": "function"
    },
    {
      "constant": false,
      "inputs": [
        {
          "name": "candidate",
          "type": "bytes32"
        }
      ],
      "name": "voteForCandidate",
      "outputs": [],
      "payable": true,
      "stateMutability": "payable",
      "type": "function"
    },
    {
      "constant": true,
      "inputs": [
        {
          "name": "candidate",
          "type": "bytes32"
        }
      ],
      "name": "validCandidate",
      "outputs": [
        {
          "name": "",
          "type": "bool"
        }
      ],
      "payable": false,
      "stateMutability": "view",
      "type": "function"
    },
    {
      "constant": true,
      "inputs": [],
      "name": "whoAmI",
      "outputs": [
        {
          "name": "",
          "type": "address"
        }
      ],
      "payable": false,
      "stateMutability": "view",
      "type": "function"
    },
    {
      "constant": false,
      "inputs": [
        {
          "name": "_candidate",
          "type": "bytes32"
        }
      ],
      "name": "withdraw",
      "outputs": [],
      "payable": false,
      "stateMutability": "nonpayable",
      "type": "function"
    },
    {
      "constant": true,
      "inputs": [],
      "name": "getVoters",
      "outputs": [
        {
          "name": "",
          "type": "address[]"
        }
      ],
      "payable": false,
      "stateMutability": "view",
      "type": "function"
    },
    {
      "constant": true,
      "inputs": [
        {
          "name": "_who",
          "type": "address"
        }
      ],
      "name": "getWhoVotesHim",
      "outputs": [
        {
          "name": "",
          "type": "bytes32"
        }
      ],
      "payable": false,
      "stateMutability": "view",
      "type": "function"
    }
  ],
  "bytecode": "0x6080604052670de0b6b3a7640000600455600060055534801561002157600080fd5b50604051610a31380380610a3183398101806040528101908080518201929190505050806002908051906020019061005a929190610061565b50506100d9565b8280548282559060005260206000209081019282156100a3579160200282015b828111156100a2578251829060001916905591602001919060010190610081565b5b5090506100b091906100b4565b5090565b6100d691905b808211156100d25760008160009055506001016100ba565b5090565b90565b610949806100e86000396000f3006080604052600436106100c5576000357c0100000000000000000000000000000000000000000000000000000000900463ffffffff1680632f265cf7146100ca578063392e6678146101155780637021939f1461015e5780638e19899e146101a95780639aad0279146101da578063b13c744b14610239578063cc9ab26714610282578063cdd72253146102a6578063d4c3eea014610312578063da58c7d91461033d578063da91254c146103aa578063ddca3f4314610401578063de0d109a1461042c575b600080fd5b3480156100d657600080fd5b506100f9600480360381019080803560001916906020019092919050505061048b565b604051808260ff1660ff16815260200191505060405180910390f35b34801561012157600080fd5b5061014460048036038101908080356000191690602001909291905050506104d9565b604051808215151515815260200191505060405180910390f35b34801561016a57600080fd5b5061018d6004803603810190808035600019169060200190929190505050610538565b604051808260ff1660ff16815260200191505060405180910390f35b3480156101b557600080fd5b506101d86004803603810190808035600019169060200190929190505050610558565b005b3480156101e657600080fd5b5061021b600480360381019080803573ffffffffffffffffffffffffffffffffffffffff169060200190929190505050610621565b60405180826000191660001916815260200191505060405180910390f35b34801561024557600080fd5b5061026460048036038101908080359060200190929190505050610639565b60405180826000191660001916815260200191505060405180910390f35b6102a4600480360381019080803560001916906020019092919050505061065c565b005b3480156102b257600080fd5b506102bb6107f4565b6040518080602001828103825283818151815260200191508051906020019060200280838360005b838110156102fe5780820151818401526020810190506102e3565b505050509050019250505060405180910390f35b34801561031e57600080fd5b50610327610882565b6040518082815260200191505060405180910390f35b34801561034957600080fd5b5061036860048036038101908080359060200190929190505050610888565b604051808273ffffffffffffffffffffffffffffffffffffffff1673ffffffffffffffffffffffffffffffffffffffff16815260200191505060405180910390f35b3480156103b657600080fd5b506103bf6108c6565b604051808273ffffffffffffffffffffffffffffffffffffffff1673ffffffffffffffffffffffffffffffffffffffff16815260200191505060405180910390f35b34801561040d57600080fd5b506104166108ce565b6040518082815260200191505060405180910390f35b34801561043857600080fd5b5061046d600480360381019080803573ffffffffffffffffffffffffffffffffffffffff1690602001909291905050506108d4565b60405180826000191660001916815260200191505060405180910390f35b6000816001151561049b826104d9565b15151415156104a957600080fd5b600080846000191660001916815260200190815260200160002060009054906101000a900460ff16915050919050565b600080600090505b60028054905081101561052d57826000191660028281548110151561050257fe5b90600052602060002001546000191614156105205760019150610532565b80806001019150506104e1565b600091505b50919050565b60006020528060005260406000206000915054906101000a900460ff1681565b6000806000806000856000191660001916815260200190815260200160002060009054906101000a900460ff1692508260ff1660055481151561059757fe5b049150600360008154811015156105aa57fe5b9060005260206000200160009054906101000a900473ffffffffffffffffffffffffffffffffffffffff1673ffffffffffffffffffffffffffffffffffffffff166108fc839081150290604051600060405180830381858888f1935050505015801561061a573d6000803e3d6000fd5b5050505050565b60016020528060005260406000206000915090505481565b60028181548110151561064857fe5b906000526020600020016000915090505481565b806001151561066a826104d9565b151514151561067857600080fd5b600454341015151561068957600080fd5b60033390806001815401808255809150509060018203906000526020600020016000909192909190916101000a81548173ffffffffffffffffffffffffffffffffffffffff021916908373ffffffffffffffffffffffffffffffffffffffff1602179055505081600160003373ffffffffffffffffffffffffffffffffffffffff1673ffffffffffffffffffffffffffffffffffffffff1681526020019081526020016000208160001916905550346005600082825401925050819055507f9c1128734f80931e3251873b23f448d1e3680279fb54c4bbaa4234cad3818ba133604051808273ffffffffffffffffffffffffffffffffffffffff1673ffffffffffffffffffffffffffffffffffffffff16815260200191505060405180910390a16001600080846000191660001916815260200190815260200160002060008282829054906101000a900460ff160192506101000a81548160ff021916908360ff1602179055505050565b6060600380548060200260200160405190810160405280929190818152602001828054801561087857602002820191906000526020600020905b8160009054906101000a900473ffffffffffffffffffffffffffffffffffffffff1673ffffffffffffffffffffffffffffffffffffffff168152602001906001019080831161082e575b5050505050905090565b60055481565b60038181548110151561089757fe5b906000526020600020016000915054906101000a900473ffffffffffffffffffffffffffffffffffffffff1681565b600033905090565b60045481565b6000600160008373ffffffffffffffffffffffffffffffffffffffff1673ffffffffffffffffffffffffffffffffffffffff1681526020019081526020016000205490509190505600a165627a7a72305820649de6235a570d25b422724b93ace4ec27afa3f703bfba89d8e216c0ca144aca0029",
  "source": "pragma solidity ^0.4.23;\n\ncontract Voting {\n  \n  mapping (bytes32 => uint8) public votesReceived;\n\n  mapping (address => bytes32) public whoVotesHim;\n  \n  bytes32[] public candidateList;\n\n  address[] public voters;\n\n  uint public fee = 1 ether;\n  uint public totalValue = 0;\n \n\n  event IAmHere(address i);\n\n  constructor (bytes32[] candidateNames) public{\n    candidateList = candidateNames;\n  }\n\n  function totalVotesFor(bytes32 candidate) myValid(candidate) public view returns (uint8) {\n    return votesReceived[candidate];\n  }\n\n  function voteForCandidate (bytes32 candidate) public payable myValid(candidate){\n    require(msg.value >= fee);\n\n    voters.push(msg.sender);\n    whoVotesHim[msg.sender] = candidate;\n    totalValue += msg.value;\n\n\n    emit IAmHere(msg.sender);\n    votesReceived[candidate] += 1;\n  }\n\n  function validCandidate(bytes32 candidate) public view returns (bool) {\n    for(uint i = 0; i < candidateList.length; i++) {\n      if (candidateList[i] == candidate) {\n        return true;\n      }\n    }\n    return false;\n  }\n\n  modifier myValid(bytes32 candidate){\n    require( validCandidate(candidate) == true );\n    _;\n  }\n\n  function whoAmI() public view returns(address){\n    return msg.sender;\n  }\n\n  function withdraw(bytes32 _candidate) external{\n    uint8 winnerCount = votesReceived[_candidate];\n    uint moneyD = totalValue / winnerCount; \n    bytes32 a;\n    voters[0].transfer(moneyD);\n    /* for(uint i=0; i<voters.length; i++){\n      a = whoVotesHim[voters[i]];\n      if( a == _candidate ){\n        voters[i].transfer(moneyD);\n      }\n    } */\n  }\n\n  function getVoters() external view returns(address[]){\n    return voters;\n  }\n\n  function getWhoVotesHim(address _who) external view returns(bytes32){\n    return whoVotesHim[_who];\n  }\n}\n",
  "sourcePath": "/home/user/myVotingContract/contracts/Voting.sol",
  "compiler": {
    "name": "solc",
    "version": "0.4.23+commit.124ca40d.Emscripten.clang"
  },
  "schemaVersion": "2.0.0",
  "updatedAt": "2018-06-14T03:52:37.613Z"
}