{
  "contractName": "Voting",
  "abi": [
    {
      "constant": true,
      "inputs": [
        {
          "name": "",
          "type": "bytes32"
        }
      ],
      "name": "votesReceived",
      "outputs": [
        {
          "name": "",
          "type": "uint8"
        }
      ],
      "payable": false,
      "stateMutability": "view",
      "type": "function"
    },
    {
      "constant": true,
      "inputs": [
        {
          "name": "",
          "type": "address"
        }
      ],
      "name": "whoVotesHim",
      "outputs": [
        {
          "name": "",
          "type": "bytes32"
        }
      ],
      "payable": false,
      "stateMutability": "view",
      "type": "function"
    },
    {
      "constant": true,
      "inputs": [
        {
          "name": "",
          "type": "uint256"
        }
      ],
      "name": "candidateList",
      "outputs": [
        {
          "name": "",
          "type": "bytes32"
        }
      ],
      "payable": false,
      "stateMutability": "view",
      "type": "function"
    },
    {
      "constant": true,
      "inputs": [],
      "name": "totalValue",
      "outputs": [
        {
          "name": "",
          "type": "uint256"
        }
      ],
      "payable": false,
      "stateMutability": "view",
      "type": "function"
    },
    {
      "constant": true,
      "inputs": [
        {
          "name": "",
          "type": "uint256"
        }
      ],
      "name": "voters",
      "outputs": [
        {
          "name": "",
          "type": "address"
        }
      ],
      "payable": false,
      "stateMutability": "view",
      "type": "function"
    },
    {
      "constant": true,
      "inputs": [],
      "name": "fee",
      "outputs": [
        {
          "name": "",
          "type": "uint256"
        }
      ],
      "payable": false,
      "stateMutability": "view",
      "type": "function"
    },
    {
      "inputs": [
        {
          "name": "candidateNames",
          "type": "bytes32[]"
        }
      ],
      "payable": false,
      "stateMutability": "nonpayable",
      "type": "constructor"
    },
    {
      "anonymous": false,
      "inputs": [
        {
          "indexed": false,
          "name": "i",
          "type": "address"
        }
      ],
      "name": "IAmHere",
      "type": "event"
    },
    {
      "constant": true,
      "inputs": [
        {
          "name": "candidate",
          "type": "bytes32"
        }
      ],
      "name": "totalVotesFor",
      "outputs": [
        {
          "name": "",
          "type": "uint8"
        }
      ],
      "payable": false,
      "stateMutability": "view",
      "type": "function"
    },
    {
      "constant": false,
      "inputs": [
        {
          "name": "candidate",
          "type": "bytes32"
        }
      ],
      "name": "voteForCandidate",
      "outputs": [],
      "payable": true,
      "stateMutability": "payable",
      "type": "function"
    },
    {
      "constant": true,
      "inputs": [
        {
          "name": "candidate",
          "type": "bytes32"
        }
      ],
      "name": "validCandidate",
      "outputs": [
        {
          "name": "",
          "type": "bool"
        }
      ],
      "payable": false,
      "stateMutability": "view",
      "type": "function"
    },
    {
      "constant": true,
      "inputs": [],
      "name": "whoAmI",
      "outputs": [
        {
          "name": "",
          "type": "address"
        }
      ],
      "payable": false,
      "stateMutability": "view",
      "type": "function"
    },
    {
      "constant": false,
      "inputs": [
        {
          "name": "_candidate",
          "type": "bytes32"
        }
      ],
      "name": "withdraw",
      "outputs": [],
      "payable": false,
      "stateMutability": "nonpayable",
      "type": "function"
    },
    {
      "constant": true,
      "inputs": [],
      "name": "getVoters",
      "outputs": [
        {
          "name": "",
          "type": "address[]"
        }
      ],
      "payable": false,
      "stateMutability": "view",
      "type": "function"
    },
    {
      "constant": true,
      "inputs": [
        {
          "name": "_who",
          "type": "address"
        }
      ],
      "name": "getWhoVotesHim",
      "outputs": [
        {
          "name": "",
          "type": "bytes32"
        }
      ],
      "payable": false,
      "stateMutability": "view",
      "type": "function"
    },
    {
      "constant": false,
      "inputs": [
        {
          "name": "_test",
          "type": "address"
        }
      ],
      "name": "trans",
      "outputs": [
        {
          "name": "",
          "type": "address"
        }
      ],
      "payable": false,
      "stateMutability": "nonpayable",
      "type": "function"
    },
    {
      "constant": false,
      "inputs": [],
      "name": "mytrans",
      "outputs": [],
      "payable": false,
      "stateMutability": "nonpayable",
      "type": "function"
    }
  ],
  "bytecode": "0x6080604052670de0b6b3a7640000600455600060055534801561002157600080fd5b50604051610b33380380610b3383398101806040528101908080518201929190505050806002908051906020019061005a929190610061565b50506100d9565b8280548282559060005260206000209081019282156100a3579160200282015b828111156100a2578251829060001916905591602001919060010190610081565b5b5090506100b091906100b4565b5090565b6100d691905b808211156100d25760008160009055506001016100ba565b5090565b90565b610a4b806100e86000396000f3006080604052600436106100db576000357c0100000000000000000000000000000000000000000000000000000000900463ffffffff16806326e250a5146100e05780632f265cf7146100f7578063392e667814610142578063701000931461018b5780637021939f1461020e5780638e19899e146102595780639aad02791461028a578063b13c744b146102e9578063cc9ab26714610332578063cdd7225314610356578063d4c3eea0146103c2578063da58c7d9146103ed578063da91254c1461045a578063ddca3f43146104b1578063de0d109a146104dc575b600080fd5b3480156100ec57600080fd5b506100f561053b565b005b34801561010357600080fd5b50610126600480360381019080803560001916906020019092919050505061053d565b604051808260ff1660ff16815260200191505060405180910390f35b34801561014e57600080fd5b50610171600480360381019080803560001916906020019092919050505061058b565b604051808215151515815260200191505060405180910390f35b34801561019757600080fd5b506101cc600480360381019080803573ffffffffffffffffffffffffffffffffffffffff1690602001909291905050506105ea565b604051808273ffffffffffffffffffffffffffffffffffffffff1673ffffffffffffffffffffffffffffffffffffffff16815260200191505060405180910390f35b34801561021a57600080fd5b5061023d600480360381019080803560001916906020019092919050505061063d565b604051808260ff1660ff16815260200191505060405180910390f35b34801561026557600080fd5b50610288600480360381019080803560001916906020019092919050505061065d565b005b34801561029657600080fd5b506102cb600480360381019080803573ffffffffffffffffffffffffffffffffffffffff169060200190929190505050610723565b60405180826000191660001916815260200191505060405180910390f35b3480156102f557600080fd5b506103146004803603810190808035906020019092919050505061073b565b60405180826000191660001916815260200191505060405180910390f35b610354600480360381019080803560001916906020019092919050505061075e565b005b34801561036257600080fd5b5061036b6108f6565b6040518080602001828103825283818151815260200191508051906020019060200280838360005b838110156103ae578082015181840152602081019050610393565b505050509050019250505060405180910390f35b3480156103ce57600080fd5b506103d7610984565b6040518082815260200191505060405180910390f35b3480156103f957600080fd5b506104186004803603810190808035906020019092919050505061098a565b604051808273ffffffffffffffffffffffffffffffffffffffff1673ffffffffffffffffffffffffffffffffffffffff16815260200191505060405180910390f35b34801561046657600080fd5b5061046f6109c8565b604051808273ffffffffffffffffffffffffffffffffffffffff1673ffffffffffffffffffffffffffffffffffffffff16815260200191505060405180910390f35b3480156104bd57600080fd5b506104c66109d0565b6040518082815260200191505060405180910390f35b3480156104e857600080fd5b5061051d600480360381019080803573ffffffffffffffffffffffffffffffffffffffff1690602001909291905050506109d6565b60405180826000191660001916815260200191505060405180910390f35b565b6000816001151561054d8261058b565b151514151561055b57600080fd5b600080846000191660001916815260200190815260200160002060009054906101000a900460ff16915050919050565b600080600090505b6002805490508110156105df5782600019166002828154811015156105b457fe5b90600052602060002001546000191614156105d257600191506105e4565b8080600101915050610593565b600091505b50919050565b60008173ffffffffffffffffffffffffffffffffffffffff166108fc6004549081150290604051600060405180830381858888f19350505050158015610634573d6000803e3d6000fd5b50819050919050565b60006020528060005260406000206000915054906101000a900460ff1681565b600080600080846000191660001916815260200190815260200160002060009054906101000a900460ff1691508160ff1660055481151561069a57fe5b049050600360008154811015156106ad57fe5b9060005260206000200160009054906101000a900473ffffffffffffffffffffffffffffffffffffffff1673ffffffffffffffffffffffffffffffffffffffff166108fc829081150290604051600060405180830381858888f1935050505015801561071d573d6000803e3d6000fd5b50505050565b60016020528060005260406000206000915090505481565b60028181548110151561074a57fe5b906000526020600020016000915090505481565b806001151561076c8261058b565b151514151561077a57600080fd5b600454341015151561078b57600080fd5b60033390806001815401808255809150509060018203906000526020600020016000909192909190916101000a81548173ffffffffffffffffffffffffffffffffffffffff021916908373ffffffffffffffffffffffffffffffffffffffff1602179055505081600160003373ffffffffffffffffffffffffffffffffffffffff1673ffffffffffffffffffffffffffffffffffffffff1681526020019081526020016000208160001916905550346005600082825401925050819055507f9c1128734f80931e3251873b23f448d1e3680279fb54c4bbaa4234cad3818ba133604051808273ffffffffffffffffffffffffffffffffffffffff1673ffffffffffffffffffffffffffffffffffffffff16815260200191505060405180910390a16001600080846000191660001916815260200190815260200160002060008282829054906101000a900460ff160192506101000a81548160ff021916908360ff1602179055505050565b6060600380548060200260200160405190810160405280929190818152602001828054801561097a57602002820191906000526020600020905b8160009054906101000a900473ffffffffffffffffffffffffffffffffffffffff1673ffffffffffffffffffffffffffffffffffffffff1681526020019060010190808311610930575b5050505050905090565b60055481565b60038181548110151561099957fe5b906000526020600020016000915054906101000a900473ffffffffffffffffffffffffffffffffffffffff1681565b600033905090565b60045481565b6000600160008373ffffffffffffffffffffffffffffffffffffffff1673ffffffffffffffffffffffffffffffffffffffff1681526020019081526020016000205490509190505600a165627a7a7230582026383c8953c7d12bfebdc62ee1bf8ad0d58cfad01eba315d0768c3e57bd3ec340029",
  "source": "pragma solidity ^0.4.23;\n\ncontract Voting {\n  \n  mapping (bytes32 => uint8) public votesReceived;\n\n  mapping (address => bytes32) public whoVotesHim;\n  \n  bytes32[] public candidateList;\n\n  address[] public voters;\n\n  uint public fee = 1 ether;\n  uint public totalValue = 0;\n \n\n  event IAmHere(address i);\n\n  constructor (bytes32[] candidateNames) public{\n    candidateList = candidateNames;\n  }\n\n  function totalVotesFor(bytes32 candidate) myValid(candidate) public view returns (uint8) {\n    return votesReceived[candidate];\n  }\n\n  function voteForCandidate (bytes32 candidate) public payable myValid(candidate){\n    require(msg.value >= fee);\n\n    voters.push(msg.sender);\n    whoVotesHim[msg.sender] = candidate;\n    totalValue += msg.value;\n\n\n    emit IAmHere(msg.sender);\n    votesReceived[candidate] += 1;\n  }\n\n  function validCandidate(bytes32 candidate) public view returns (bool) {\n    for(uint i = 0; i < candidateList.length; i++) {\n      if (candidateList[i] == candidate) {\n        return true;\n      }\n    }\n    return false;\n  }\n\n  modifier myValid(bytes32 candidate){\n    require( validCandidate(candidate) == true );\n    _;\n  }\n\n  function whoAmI() public view returns(address){\n    return msg.sender;\n  }\n\n  function withdraw(bytes32 _candidate) external{\n    uint8 winnerCount = votesReceived[_candidate];\n    uint moneyD = totalValue / winnerCount; \n    //bytes32 a;\n    voters[0].transfer(moneyD);\n    /* for(uint i=0; i<voters.length; i++){\n      a = whoVotesHim[voters[i]];\n      if( a == _candidate ){\n        voters[i].transfer(moneyD);\n      }\n    } */\n  }\n\n  function getVoters() external view returns(address[]){\n    return voters;\n  }\n\n  function getWhoVotesHim(address _who) external view returns(bytes32){\n    return whoVotesHim[_who];\n  }\n\n  function trans(address _test) external returns(address){\n    _test.transfer(fee);\n    return _test;\n  }\n  function mytrans() external{\n    \n  }\n}\n",
  "sourcePath": "/home/user/myVotingContract/contracts/Voting.sol",
  "compiler": {
    "name": "solc",
    "version": "0.4.23+commit.124ca40d.Emscripten.clang"
  },
  "schemaVersion": "2.0.0",
  "updatedAt": "2018-06-14T07:17:21.845Z"
}